{"abi":[{"type":"constructor","inputs":[{"name":"weth_","type":"address","internalType":"address"},{"name":"usdc_","type":"address","internalType":"address"},{"name":"uniswapV3Quoter_","type":"address","internalType":"address"}],"stateMutability":"nonpayable"},{"type":"function","name":"HUNDRED_PERCENT","inputs":[],"outputs":[{"name":"","type":"uint24","internalType":"uint24"}],"stateMutability":"view"},{"type":"function","name":"fees","inputs":[{"name":"","type":"uint256","internalType":"uint256"}],"outputs":[{"name":"","type":"uint24","internalType":"uint24"}],"stateMutability":"view"},{"type":"function","name":"getAllPaths","inputs":[{"name":"tokenA","type":"address","internalType":"address"},{"name":"tokenB","type":"address","internalType":"address"}],"outputs":[{"name":"paths","type":"bytes[]","internalType":"bytes[]"}],"stateMutability":"view"},{"type":"function","name":"getTokenTargetValues","inputs":[{"name":"etf_","type":"address","internalType":"address"}],"outputs":[{"name":"tokenTargetWeights","type":"uint24[]","internalType":"uint24[]"},{"name":"tokenTargetValues","type":"uint256[]","internalType":"uint256[]"},{"name":"tokenReserves","type":"uint256[]","internalType":"uint256[]"}],"stateMutability":"view"},{"type":"function","name":"quoteExactIn","inputs":[{"name":"tokenIn","type":"address","internalType":"address"},{"name":"tokenOut","type":"address","internalType":"address"},{"name":"amountIn","type":"uint256","internalType":"uint256"}],"outputs":[{"name":"path","type":"bytes","internalType":"bytes"},{"name":"amountOut","type":"uint256","internalType":"uint256"}],"stateMutability":"view"},{"type":"function","name":"quoteExactOut","inputs":[{"name":"tokenIn","type":"address","internalType":"address"},{"name":"tokenOut","type":"address","internalType":"address"},{"name":"amountOut","type":"uint256","internalType":"uint256"}],"outputs":[{"name":"path","type":"bytes","internalType":"bytes"},{"name":"amountIn","type":"uint256","internalType":"uint256"}],"stateMutability":"view"},{"type":"function","name":"quoteInvestWithToken","inputs":[{"name":"etf","type":"address","internalType":"address"},{"name":"srcToken","type":"address","internalType":"address"},{"name":"mintAmount","type":"uint256","internalType":"uint256"}],"outputs":[{"name":"srcAmount","type":"uint256","internalType":"uint256"},{"name":"swapPaths","type":"bytes[]","internalType":"bytes[]"}],"stateMutability":"view"},{"type":"function","name":"quoteRedeemToToken","inputs":[{"name":"etf","type":"address","internalType":"address"},{"name":"dstToken","type":"address","internalType":"address"},{"name":"burnAmount","type":"uint256","internalType":"uint256"}],"outputs":[{"name":"dstAmount","type":"uint256","internalType":"uint256"},{"name":"swapPaths","type":"bytes[]","internalType":"bytes[]"}],"stateMutability":"view"},{"type":"function","name":"uniswapV3Quoter","inputs":[],"outputs":[{"name":"","type":"address","internalType":"contract IUniswapV3Quoter"}],"stateMutability":"view"},{"type":"function","name":"usdc","inputs":[],"outputs":[{"name":"","type":"address","internalType":"address"}],"stateMutability":"view"},{"type":"function","name":"weth","inputs":[],"outputs":[{"name":"","type":"address","internalType":"address"}],"stateMutability":"view"},{"type":"error","name":"SameToken","inputs":[]}],"bytecode":{"object":"0x60e060405234801561000f575f5ffd5b5060405161189038038061189083398101604081905261002e9161015b565b6001600160a01b03808416608090815283821660a05290821660c052604080519182018152606482526101f46020830152610bb890820152612710606082015261007b905f906004610084565b5050505061019b565b828054828255905f5260205f2090600901600a9004810192821561011c579160200282015f5b838211156100eb57835183826101000a81548162ffffff021916908361ffff16021790555092602001926003016020816002010492830192600103026100aa565b801561011a5782816101000a81549062ffffff02191690556003016020816002010492830192600103026100eb565b505b5061012892915061012c565b5090565b5b80821115610128575f815560010161012d565b80516001600160a01b0381168114610156575f5ffd5b919050565b5f5f5f6060848603121561016d575f5ffd5b61017684610140565b925061018460208501610140565b915061019260408501610140565b90509250925092565b60805160a05160c0516116b06101e05f395f8181610187015281816104c80152610bbc01525f818160fa0152610dfc01525f81816101390152610dd701526116b05ff3fe608060405234801561000f575f5ffd5b50600436106100a6575f3560e01c80634d20d0f81161006e5780634d20d0f8146101825780634d3d06d0146101a95780635fd97088146101bc5780636ed93dd0146101de5780637020df95146101e8578063d070166d146101fb575f5ffd5b80630816b425146100aa57806312be4fe0146100d45780633e413bee146100f55780633fc8cef3146101345780634acc79ed1461015b575b5f5ffd5b6100bd6100b8366004610f98565b61021b565b6040516100cb92919061105e565b60405180910390f35b6100e76100e2366004610f98565b6104ab565b6040516100cb92919061107e565b61011c7f000000000000000000000000000000000000000000000000000000000000000081565b6040516001600160a01b0390911681526020016100cb565b61011c7f000000000000000000000000000000000000000000000000000000000000000081565b61016e61016936600461109f565b6105c0565b60405162ffffff90911681526020016100cb565b61011c7f000000000000000000000000000000000000000000000000000000000000000081565b6100bd6101b7366004610f98565b6105f5565b6101cf6101ca3660046110b6565b61087a565b6040516100cb93929190611112565b61016e620f424081565b6100e76101f6366004610f98565b610b9f565b61020e610209366004611183565b610caa565b6040516100cb91906111ba565b5f60605f856001600160a01b031663aa6ca8086040518163ffffffff1660e01b81526004015f60405180830381865afa15801561025a573d5f5f3e3d5ffd5b505050506040513d5f823e601f3d908101601f1916820160405261028191908101906112a5565b60405163ce7ddbef60e01b8152600481018690529091505f906001600160a01b0388169063ce7ddbef906024015f60405180830381865afa1580156102c8573d5f5f3e3d5ffd5b505050506040513d5f823e601f3d908101601f191682016040526102ef9190810190611331565b905081516001600160401b0381111561030a5761030a6111cc565b60405190808252806020026020018201604052801561033d57816020015b60608152602001906001900390816103285790505b5092505f5b82518110156104a057866001600160a01b031683828151811061036757610367611362565b60200260200101516001600160a01b0316036104275781818151811061038f5761038f611362565b6020026020010151856103a2919061138a565b94508660601b5f5f815481106103ba576103ba611362565b905f5260205f2090600a91828204019190066003029054906101000a900462ffffff1660e81b8860601b6040516020016103f6939291906113a3565b60405160208183030381529060405284828151811061041757610417611362565b6020026020010181905250610498565b5f5f61046685848151811061043e5761043e611362565b60200260200101518a86868151811061045957610459611362565b60200260200101516104ab565b9092509050610475818861138a565b96508186848151811061048a5761048a611362565b602002602001018190525050505b600101610342565b505050935093915050565b60605f5f6104b98686610caa565b90505f5b81518110156105b6577f00000000000000000000000000000000000000000000000000000000000000006001600160a01b031663cdca175383838151811061050757610507611362565b6020026020010151876040518363ffffffff1660e01b815260040161052d92919061107e565b5f60405180830381865afa92505050801561056957506040513d5f823e601f3d908101601f191682016040526105669190810190611442565b60015b156105ae575f84118015610584575086158061058457508387105b156105a95783965085858151811061059e5761059e611362565b602002602001015197505b505050505b6001016104bd565b5050935093915050565b5f81815481106105ce575f80fd5b905f5260205f2090600a9182820401919006600302915054906101000a900462ffffff1681565b5f60605f856001600160a01b031663aa6ca8086040518163ffffffff1660e01b81526004015f60405180830381865afa158015610634573d5f5f3e3d5ffd5b505050506040513d5f823e601f3d908101601f1916820160405261065b91908101906112a5565b6040516305def34760e01b8152600481018690529091505f906001600160a01b038816906305def347906024015f60405180830381865afa1580156106a2573d5f5f3e3d5ffd5b505050506040513d5f823e601f3d908101601f191682016040526106c99190810190611331565b905081516001600160401b038111156106e4576106e46111cc565b60405190808252806020026020018201604052801561071757816020015b60608152602001906001900390816107025790505b5092505f5b82518110156104a057866001600160a01b031683828151811061074157610741611362565b60200260200101516001600160a01b0316036108015781818151811061076957610769611362565b60200260200101518561077c919061138a565b94508660601b5f5f8154811061079457610794611362565b905f5260205f2090600a91828204019190066003029054906101000a900462ffffff1660e81b8860601b6040516020016107d0939291906113a3565b6040516020818303038152906040528482815181106107f1576107f1611362565b6020026020010181905250610872565b5f5f6108408986858151811061081957610819611362565b602002602001015186868151811061083357610833611362565b6020026020010151610b9f565b909250905061084f818861138a565b96508186848151811061086457610864611362565b602002602001018190525050505b60010161071c565b60608060605f84905060608060605f846001600160a01b0316639e88bcef6040518163ffffffff1660e01b81526004015f60405180830381865afa1580156108c4573d5f5f3e3d5ffd5b505050506040513d5f823e601f3d908101601f191682016040526108eb9190810190611518565b8351939750919550935091506001600160401b0381111561090e5761090e6111cc565b604051908082528060200260200182016040528015610937578160200160208202803683370190505b50975083516001600160401b03811115610953576109536111cc565b60405190808252806020026020018201604052801561097c578160200160208202803683370190505b50965083516001600160401b03811115610998576109986111cc565b6040519080825280602002602001820160405280156109c1578160200160208202803683370190505b5095505f5b8451811015610b9257856001600160a01b031663a2fe4f2d8683815181106109f0576109f0611362565b60200260200101516040518263ffffffff1660e01b8152600401610a2391906001600160a01b0391909116815260200190565b602060405180830381865afa158015610a3e573d5f5f3e3d5ffd5b505050506040513d601f19601f82011682018060405250810190610a6291906115f3565b898281518110610a7457610a74611362565b602002602001019062ffffff16908162ffffff1681525050620f424062ffffff16898281518110610aa757610aa7611362565b602002602001015162ffffff1683610abf9190611615565b610ac9919061162c565b888281518110610adb57610adb611362565b602002602001018181525050848181518110610af957610af9611362565b60209081029190910101516040516370a0823160e01b81526001600160a01b038c81166004830152909116906370a0823190602401602060405180830381865afa158015610b49573d5f5f3e3d5ffd5b505050506040513d601f19601f82011682018060405250810190610b6d919061164b565b878281518110610b7f57610b7f611362565b60209081029190910101526001016109c6565b5050505050509193909250565b60605f5f610bad8587610caa565b90505f5b81518110156105b6577f00000000000000000000000000000000000000000000000000000000000000006001600160a01b0316632f80bb1d838381518110610bfb57610bfb611362565b6020026020010151876040518363ffffffff1660e01b8152600401610c2192919061107e565b5f60405180830381865afa925050508015610c5d57506040513d5f823e601f3d908101601f19168201604052610c5a9190810190611442565b60015b15610ca2575f84118015610c785750861580610c7857508387115b15610c9d57839650858581518110610c9257610c92611362565b602002602001015197505b505050505b600101610bb1565b5f805460609190610cbb9080611615565b610cc6906002611615565b5f54610cd2919061138a565b9050806001600160401b03811115610cec57610cec6111cc565b604051908082528060200260200182016040528015610d1f57816020015b6060815260200190600190039081610d0a5790505b5091505f805b5f54811015610dc2578560601b5f8281548110610d4457610d44611362565b905f5260205f2090600a91828204019190066003029054906101000a900462ffffff1660e81b8660601b604051602001610d80939291906113a3565b604051602081830303815290604052848381518110610da157610da1611362565b60200260200101819052508180610db790611662565b925050600101610d25565b50604080518082019091526001600160a01b037f0000000000000000000000000000000000000000000000000000000000000000811682527f00000000000000000000000000000000000000000000000000000000000000001660208201525f5b6002811015610f77575f5b5f54811015610f6e575f5b5f54811015610f65578860601b5f8381548110610e5857610e58611362565b905f5260205f2090600a91828204019190066003029054906101000a900462ffffff1660e81b858560028110610e9057610e90611362565b602002015160601b5f8481548110610eaa57610eaa611362565b905f5260205f2090600a91828204019190066003029054906101000a900462ffffff1660e81b8b60601b604051602001610f239594939291906bffffffffffffffffffffffff1995861681526001600160e81b0319948516601482015292851660178401529216602b8201529116602e82015260420190565b604051602081830303815290604052878681518110610f4457610f44611362565b60200260200101819052508480610f5a90611662565b955050600101610e39565b50600101610e2e565b50600101610e23565b5050505092915050565b6001600160a01b0381168114610f95575f5ffd5b50565b5f5f5f60608486031215610faa575f5ffd5b8335610fb581610f81565b92506020840135610fc581610f81565b929592945050506040919091013590565b5f81518084528060208401602086015e5f602082860101526020601f19601f83011685010191505092915050565b5f82825180855260208501945060208160051b830101602085015f5b8381101561105257601f1985840301885261103c838351610fd6565b6020988901989093509190910190600101611020565b50909695505050505050565b828152604060208201525f6110766040830184611004565b949350505050565b604081525f6110906040830185610fd6565b90508260208301529392505050565b5f602082840312156110af575f5ffd5b5035919050565b5f602082840312156110c6575f5ffd5b81356110d181610f81565b9392505050565b5f8151808452602084019350602083015f5b828110156111085781518652602095860195909101906001016110ea565b5093949350505050565b606080825284519082018190525f9060208601906080840190835b8181101561115057835162ffffff1683526020938401939092019160010161112d565b5050838103602085015261116481876110d8565b915050828103604084015261117981856110d8565b9695505050505050565b5f5f60408385031215611194575f5ffd5b823561119f81610f81565b915060208301356111af81610f81565b809150509250929050565b602081525f6110d16020830184611004565b634e487b7160e01b5f52604160045260245ffd5b604051601f8201601f191681016001600160401b0381118282101715611208576112086111cc565b604052919050565b5f6001600160401b03821115611228576112286111cc565b5060051b60200190565b5f82601f830112611241575f5ffd5b815161125461124f82611210565b6111e0565b8082825260208201915060208360051b860101925085831115611275575f5ffd5b602085015b8381101561129b57805161128d81610f81565b83526020928301920161127a565b5095945050505050565b5f602082840312156112b5575f5ffd5b81516001600160401b038111156112ca575f5ffd5b61107684828501611232565b5f82601f8301126112e5575f5ffd5b81516112f361124f82611210565b8082825260208201915060208360051b860101925085831115611314575f5ffd5b602085015b8381101561129b578051835260209283019201611319565b5f60208284031215611341575f5ffd5b81516001600160401b03811115611356575f5ffd5b611076848285016112d6565b634e487b7160e01b5f52603260045260245ffd5b634e487b7160e01b5f52601160045260245ffd5b8082018082111561139d5761139d611376565b92915050565b6bffffffffffffffffffffffff1993841681526001600160e81b03199290921660148301529091166017820152602b0190565b5f82601f8301126113e5575f5ffd5b81516113f361124f82611210565b8082825260208201915060208360051b860101925085831115611414575f5ffd5b602085015b8381101561129b57805163ffffffff81168114611434575f5ffd5b835260209283019201611419565b5f5f5f5f60808587031215611455575f5ffd5b845160208601519094506001600160401b03811115611472575f5ffd5b8501601f81018713611482575f5ffd5b805161149061124f82611210565b8082825260208201915060208360051b8501019250898311156114b1575f5ffd5b6020840193505b828410156114dc5783516114cb81610f81565b8252602093840193909101906114b8565b8096505050505060408501516001600160401b038111156114fb575f5ffd5b611507878288016113d6565b606096909601519497939650505050565b5f5f5f5f6080858703121561152b575f5ffd5b84516001600160401b03811115611540575f5ffd5b61154c87828801611232565b94505060208501516001600160401b03811115611567575f5ffd5b8501601f81018713611577575f5ffd5b805161158561124f82611210565b8082825260208201915060208360051b8501019250898311156115a6575f5ffd5b6020840193505b828410156115c85783518252602093840193909101906115ad565b8096505050505060408501516001600160401b038111156115e7575f5ffd5b611507878288016112d6565b5f60208284031215611603575f5ffd5b815162ffffff811681146110d1575f5ffd5b808202811582820484141761139d5761139d611376565b5f8261164657634e487b7160e01b5f52601260045260245ffd5b500490565b5f6020828403121561165b575f5ffd5b5051919050565b5f6001820161167357611673611376565b506001019056fea26469706673582212209dee4e00c70f8158aa3bacf7b736ecff31c3b45363ac2fba38ffb63e9799503164736f6c634300081c0033","linkReferences":{}},"methodIdentifiers":{"HUNDRED_PERCENT()":"6ed93dd0","fees(uint256)":"4acc79ed","getAllPaths(address,address)":"d070166d","getTokenTargetValues(address)":"5fd97088","quoteExactIn(address,address,uint256)":"12be4fe0","quoteExactOut(address,address,uint256)":"7020df95","quoteInvestWithToken(address,address,uint256)":"4d3d06d0","quoteRedeemToToken(address,address,uint256)":"0816b425","uniswapV3Quoter()":"4d20d0f8","usdc()":"3e413bee","weth()":"3fc8cef3"},"storageLayout":{"storage":[{"astId":39014,"contract":"src/ETFQuoter.sol:ETFQuoter","label":"fees","offset":0,"slot":"0","type":"t_array(t_uint24)dyn_storage"}],"types":{"t_array(t_uint24)dyn_storage":{"encoding":"dynamic_array","label":"uint24[]","numberOfBytes":"32","base":"t_uint24"},"t_uint24":{"encoding":"inplace","label":"uint24","numberOfBytes":"3"}}},"id":29}