{"abi":[{"type":"constructor","inputs":[{"name":"name_","type":"string","internalType":"string"},{"name":"symbol_","type":"string","internalType":"string"},{"name":"minMintAmount_","type":"uint256","internalType":"uint256"},{"name":"tokens_","type":"address[]","internalType":"address[]"},{"name":"initTokenAmountPerShares_","type":"uint256[]","internalType":"uint256[]"},{"name":"swapRouter_","type":"address","internalType":"address"},{"name":"weth_","type":"address","internalType":"address"},{"name":"etfQuoter_","type":"address","internalType":"address"}],"stateMutability":"nonpayable"},{"type":"receive","stateMutability":"payable"},{"type":"function","name":"HUNDRED_PERCENT","inputs":[],"outputs":[{"name":"","type":"uint24","internalType":"uint24"}],"stateMutability":"view"},{"type":"function","name":"addToken","inputs":[{"name":"token_","type":"address","internalType":"address"}],"outputs":[],"stateMutability":"nonpayable"},{"type":"function","name":"allowance","inputs":[{"name":"owner","type":"address","internalType":"address"},{"name":"spender","type":"address","internalType":"address"}],"outputs":[{"name":"","type":"uint256","internalType":"uint256"}],"stateMutability":"view"},{"type":"function","name":"approve","inputs":[{"name":"spender","type":"address","internalType":"address"},{"name":"value","type":"uint256","internalType":"uint256"}],"outputs":[{"name":"","type":"bool","internalType":"bool"}],"stateMutability":"nonpayable"},{"type":"function","name":"balanceOf","inputs":[{"name":"account","type":"address","internalType":"address"}],"outputs":[{"name":"","type":"uint256","internalType":"uint256"}],"stateMutability":"view"},{"type":"function","name":"decimals","inputs":[],"outputs":[{"name":"","type":"uint8","internalType":"uint8"}],"stateMutability":"view"},{"type":"function","name":"etfQuoter","inputs":[],"outputs":[{"name":"","type":"address","internalType":"address"}],"stateMutability":"view"},{"type":"function","name":"feeTo","inputs":[],"outputs":[{"name":"","type":"address","internalType":"address"}],"stateMutability":"view"},{"type":"function","name":"getInitTokenAmountPerShares","inputs":[],"outputs":[{"name":"","type":"uint256[]","internalType":"uint256[]"}],"stateMutability":"view"},{"type":"function","name":"getInvestTokenAmounts","inputs":[{"name":"mintAmount_","type":"uint256","internalType":"uint256"}],"outputs":[{"name":"tokenAmounts","type":"uint256[]","internalType":"uint256[]"}],"stateMutability":"view"},{"type":"function","name":"getPriceFeed","inputs":[{"name":"token","type":"address","internalType":"address"}],"outputs":[{"name":"priceFeed","type":"address","internalType":"address"}],"stateMutability":"view"},{"type":"function","name":"getRedeemTokenAmounts","inputs":[{"name":"burnAmount_","type":"uint256","internalType":"uint256"}],"outputs":[{"name":"tokenAmounts","type":"uint256[]","internalType":"uint256[]"}],"stateMutability":"view"},{"type":"function","name":"getTokenMarketValues","inputs":[],"outputs":[{"name":"tokens","type":"address[]","internalType":"address[]"},{"name":"tokenPrices","type":"int256[]","internalType":"int256[]"},{"name":"tokenMarketValues","type":"uint256[]","internalType":"uint256[]"},{"name":"totalValues","type":"uint256","internalType":"uint256"}],"stateMutability":"view"},{"type":"function","name":"getTokenTargetWeight","inputs":[{"name":"token","type":"address","internalType":"address"}],"outputs":[{"name":"targetWeight","type":"uint24","internalType":"uint24"}],"stateMutability":"view"},{"type":"function","name":"getTokens","inputs":[],"outputs":[{"name":"","type":"address[]","internalType":"address[]"}],"stateMutability":"view"},{"type":"function","name":"invest","inputs":[{"name":"to_","type":"address","internalType":"address"},{"name":"mintAmount_","type":"uint256","internalType":"uint256"}],"outputs":[],"stateMutability":"nonpayable"},{"type":"function","name":"investFee","inputs":[],"outputs":[{"name":"","type":"uint24","internalType":"uint24"}],"stateMutability":"view"},{"type":"function","name":"investWithETH","inputs":[{"name":"to_","type":"address","internalType":"address"},{"name":"mintAmount_","type":"uint256","internalType":"uint256"},{"name":"swapPaths_","type":"bytes[]","internalType":"bytes[]"}],"outputs":[],"stateMutability":"payable"},{"type":"function","name":"investWithToken","inputs":[{"name":"srcToken_","type":"address","internalType":"address"},{"name":"to_","type":"address","internalType":"address"},{"name":"mintAmount_","type":"uint256","internalType":"uint256"},{"name":"maxSrcTokenAmount_","type":"uint256","internalType":"uint256"},{"name":"swapPaths_","type":"bytes[]","internalType":"bytes[]"}],"outputs":[],"stateMutability":"nonpayable"},{"type":"function","name":"lastRebalanceTime","inputs":[],"outputs":[{"name":"","type":"uint256","internalType":"uint256"}],"stateMutability":"view"},{"type":"function","name":"minMintAmount","inputs":[],"outputs":[{"name":"","type":"uint256","internalType":"uint256"}],"stateMutability":"view"},{"type":"function","name":"name","inputs":[],"outputs":[{"name":"","type":"string","internalType":"string"}],"stateMutability":"view"},{"type":"function","name":"owner","inputs":[],"outputs":[{"name":"","type":"address","internalType":"address"}],"stateMutability":"view"},{"type":"function","name":"rebalance","inputs":[],"outputs":[],"stateMutability":"nonpayable"},{"type":"function","name":"rebalanceDeviance","inputs":[],"outputs":[{"name":"","type":"uint24","internalType":"uint24"}],"stateMutability":"view"},{"type":"function","name":"rebalanceInterval","inputs":[],"outputs":[{"name":"","type":"uint256","internalType":"uint256"}],"stateMutability":"view"},{"type":"function","name":"redeem","inputs":[{"name":"to_","type":"address","internalType":"address"},{"name":"burnAmount_","type":"uint256","internalType":"uint256"}],"outputs":[],"stateMutability":"nonpayable"},{"type":"function","name":"redeemFee","inputs":[],"outputs":[{"name":"","type":"uint24","internalType":"uint24"}],"stateMutability":"view"},{"type":"function","name":"redeemToETH","inputs":[{"name":"to_","type":"address","internalType":"address"},{"name":"burnAmount_","type":"uint256","internalType":"uint256"},{"name":"minETHAmount_","type":"uint256","internalType":"uint256"},{"name":"swapPaths_","type":"bytes[]","internalType":"bytes[]"}],"outputs":[],"stateMutability":"nonpayable"},{"type":"function","name":"redeemToToken","inputs":[{"name":"dstToken_","type":"address","internalType":"address"},{"name":"to_","type":"address","internalType":"address"},{"name":"burnAmount_","type":"uint256","internalType":"uint256"},{"name":"minDstTokenAmount_","type":"uint256","internalType":"uint256"},{"name":"swapPaths_","type":"bytes[]","internalType":"bytes[]"}],"outputs":[],"stateMutability":"nonpayable"},{"type":"function","name":"removeToken","inputs":[{"name":"token_","type":"address","internalType":"address"}],"outputs":[],"stateMutability":"nonpayable"},{"type":"function","name":"renounceOwnership","inputs":[],"outputs":[],"stateMutability":"nonpayable"},{"type":"function","name":"setFee","inputs":[{"name":"feeTo_","type":"address","internalType":"address"},{"name":"investFee_","type":"uint24","internalType":"uint24"},{"name":"redeemFee_","type":"uint24","internalType":"uint24"}],"outputs":[],"stateMutability":"nonpayable"},{"type":"function","name":"setPriceFeeds","inputs":[{"name":"tokens_","type":"address[]","internalType":"address[]"},{"name":"priceFeeds_","type":"address[]","internalType":"address[]"}],"outputs":[],"stateMutability":"nonpayable"},{"type":"function","name":"setTokenTargetWeights","inputs":[{"name":"tokens_","type":"address[]","internalType":"address[]"},{"name":"targetWeights_","type":"uint24[]","internalType":"uint24[]"}],"outputs":[],"stateMutability":"nonpayable"},{"type":"function","name":"swapRouter","inputs":[],"outputs":[{"name":"","type":"address","internalType":"address"}],"stateMutability":"view"},{"type":"function","name":"symbol","inputs":[],"outputs":[{"name":"","type":"string","internalType":"string"}],"stateMutability":"view"},{"type":"function","name":"totalSupply","inputs":[],"outputs":[{"name":"","type":"uint256","internalType":"uint256"}],"stateMutability":"view"},{"type":"function","name":"transfer","inputs":[{"name":"to","type":"address","internalType":"address"},{"name":"value","type":"uint256","internalType":"uint256"}],"outputs":[{"name":"","type":"bool","internalType":"bool"}],"stateMutability":"nonpayable"},{"type":"function","name":"transferFrom","inputs":[{"name":"from","type":"address","internalType":"address"},{"name":"to","type":"address","internalType":"address"},{"name":"value","type":"uint256","internalType":"uint256"}],"outputs":[{"name":"","type":"bool","internalType":"bool"}],"stateMutability":"nonpayable"},{"type":"function","name":"transferOwnership","inputs":[{"name":"newOwner","type":"address","internalType":"address"}],"outputs":[],"stateMutability":"nonpayable"},{"type":"function","name":"updateMinMintAmount","inputs":[{"name":"newMinMintAmount_","type":"uint256","internalType":"uint256"}],"outputs":[],"stateMutability":"nonpayable"},{"type":"function","name":"updateRebalanceDeviance","inputs":[{"name":"newDeviance_","type":"uint24","internalType":"uint24"}],"outputs":[],"stateMutability":"nonpayable"},{"type":"function","name":"updateRebalanceInterval","inputs":[{"name":"newInterval_","type":"uint256","internalType":"uint256"}],"outputs":[],"stateMutability":"nonpayable"},{"type":"function","name":"weth","inputs":[],"outputs":[{"name":"","type":"address","internalType":"address"}],"stateMutability":"view"},{"type":"event","name":"Approval","inputs":[{"name":"owner","type":"address","indexed":true,"internalType":"address"},{"name":"spender","type":"address","indexed":true,"internalType":"address"},{"name":"value","type":"uint256","indexed":false,"internalType":"uint256"}],"anonymous":false},{"type":"event","name":"Invested","inputs":[{"name":"to","type":"address","indexed":false,"internalType":"address"},{"name":"mintAmount","type":"uint256","indexed":false,"internalType":"uint256"},{"name":"investFee","type":"uint256","indexed":false,"internalType":"uint256"},{"name":"tokenAmounts","type":"uint256[]","indexed":false,"internalType":"uint256[]"}],"anonymous":false},{"type":"event","name":"InvestedWithETH","inputs":[{"name":"to","type":"address","indexed":false,"internalType":"address"},{"name":"mintAmount","type":"uint256","indexed":false,"internalType":"uint256"},{"name":"paidAmount","type":"uint256","indexed":false,"internalType":"uint256"}],"anonymous":false},{"type":"event","name":"InvestedWithToken","inputs":[{"name":"srcToken","type":"address","indexed":true,"internalType":"address"},{"name":"to","type":"address","indexed":false,"internalType":"address"},{"name":"mintAmount","type":"uint256","indexed":false,"internalType":"uint256"},{"name":"totalPaid","type":"uint256","indexed":false,"internalType":"uint256"}],"anonymous":false},{"type":"event","name":"MinMintAmountUpdated","inputs":[{"name":"oldMinMintAmount","type":"uint256","indexed":false,"internalType":"uint256"},{"name":"newMinMintAmount","type":"uint256","indexed":false,"internalType":"uint256"}],"anonymous":false},{"type":"event","name":"OwnershipTransferred","inputs":[{"name":"previousOwner","type":"address","indexed":true,"internalType":"address"},{"name":"newOwner","type":"address","indexed":true,"internalType":"address"}],"anonymous":false},{"type":"event","name":"Rebalanced","inputs":[{"name":"reservesBefore","type":"uint256[]","indexed":false,"internalType":"uint256[]"},{"name":"reservesAfter","type":"uint256[]","indexed":false,"internalType":"uint256[]"}],"anonymous":false},{"type":"event","name":"Redeemed","inputs":[{"name":"sender","type":"address","indexed":false,"internalType":"address"},{"name":"to","type":"address","indexed":false,"internalType":"address"},{"name":"burnAmount","type":"uint256","indexed":false,"internalType":"uint256"},{"name":"redeemFee","type":"uint256","indexed":false,"internalType":"uint256"},{"name":"tokenAmounts","type":"uint256[]","indexed":false,"internalType":"uint256[]"}],"anonymous":false},{"type":"event","name":"RedeemedToETH","inputs":[{"name":"to","type":"address","indexed":false,"internalType":"address"},{"name":"burnAmount","type":"uint256","indexed":false,"internalType":"uint256"},{"name":"receivedAmount","type":"uint256","indexed":false,"internalType":"uint256"}],"anonymous":false},{"type":"event","name":"RedeemedToToken","inputs":[{"name":"dstToken","type":"address","indexed":true,"internalType":"address"},{"name":"to","type":"address","indexed":false,"internalType":"address"},{"name":"burnAmount","type":"uint256","indexed":false,"internalType":"uint256"},{"name":"receivedAmount","type":"uint256","indexed":false,"internalType":"uint256"}],"anonymous":false},{"type":"event","name":"TokenAdded","inputs":[{"name":"token","type":"address","indexed":false,"internalType":"address"},{"name":"index","type":"uint256","indexed":false,"internalType":"uint256"}],"anonymous":false},{"type":"event","name":"TokenRemoved","inputs":[{"name":"token","type":"address","indexed":false,"internalType":"address"},{"name":"index","type":"uint256","indexed":false,"internalType":"uint256"}],"anonymous":false},{"type":"event","name":"Transfer","inputs":[{"name":"from","type":"address","indexed":true,"internalType":"address"},{"name":"to","type":"address","indexed":true,"internalType":"address"},{"name":"value","type":"uint256","indexed":false,"internalType":"uint256"}],"anonymous":false},{"type":"error","name":"DifferentArrayLength","inputs":[]},{"type":"error","name":"ERC20InsufficientAllowance","inputs":[{"name":"spender","type":"address","internalType":"address"},{"name":"allowance","type":"uint256","internalType":"uint256"},{"name":"needed","type":"uint256","internalType":"uint256"}]},{"type":"error","name":"ERC20InsufficientBalance","inputs":[{"name":"sender","type":"address","internalType":"address"},{"name":"balance","type":"uint256","internalType":"uint256"},{"name":"needed","type":"uint256","internalType":"uint256"}]},{"type":"error","name":"ERC20InvalidApprover","inputs":[{"name":"approver","type":"address","internalType":"address"}]},{"type":"error","name":"ERC20InvalidReceiver","inputs":[{"name":"receiver","type":"address","internalType":"address"}]},{"type":"error","name":"ERC20InvalidSender","inputs":[{"name":"sender","type":"address","internalType":"address"}]},{"type":"error","name":"ERC20InvalidSpender","inputs":[{"name":"spender","type":"address","internalType":"address"}]},{"type":"error","name":"Forbidden","inputs":[]},{"type":"error","name":"InvalidArrayLength","inputs":[]},{"type":"error","name":"InvalidSwapPath","inputs":[{"name":"swapPath","type":"bytes","internalType":"bytes"}]},{"type":"error","name":"InvalidTotalWeights","inputs":[]},{"type":"error","name":"LessThanMinMintAmount","inputs":[{"name":"mintAmount","type":"uint256","internalType":"uint256"}]},{"type":"error","name":"NotRebalanceTime","inputs":[]},{"type":"error","name":"OverSlippage","inputs":[]},{"type":"error","name":"OwnableInvalidOwner","inputs":[{"name":"owner","type":"address","internalType":"address"}]},{"type":"error","name":"OwnableUnauthorizedAccount","inputs":[{"name":"account","type":"address","internalType":"address"}]},{"type":"error","name":"PriceFeedNotFound","inputs":[{"name":"token","type":"address","internalType":"address"}]},{"type":"error","name":"SafeERC20FailedOperation","inputs":[{"name":"token","type":"address","internalType":"address"}]},{"type":"error","name":"SafeTransferETHFailed","inputs":[]},{"type":"error","name":"TokenExists","inputs":[]},{"type":"error","name":"TokenNotFound","inputs":[]}],"bytecode":{"object":"0x60c060405234801561000f575f5ffd5b5060405161524438038061524483398101604081905261002e9161039e565b338888600361003d8382610517565b50600461004a8282610517565b5050506001600160a01b03811661007a57604051631e4fbdf760e01b81525f600482015260240160405180910390fd5b610083816100e5565b50845161009790600e906020880190610136565b5083516100ab90600f906020870190610199565b506007959095556001600160a01b03918216608052811660a052600880546001600160a01b0319169190941617909255506105d192505050565b600580546001600160a01b038381166001600160a01b0319831681179093556040519116919082907f8be0079c531659141344cd1fd0a4f28419497f9722a3daafe3b4186f6b6457e0905f90a35050565b828054828255905f5260205f20908101928215610189579160200282015b8281111561018957825182546001600160a01b0319166001600160a01b03909116178255602090920191600190910190610154565b506101959291506101d2565b5090565b828054828255905f5260205f20908101928215610189579160200282015b828111156101895782518255916020019190600101906101b7565b5b80821115610195575f81556001016101d3565b634e487b7160e01b5f52604160045260245ffd5b604051601f8201601f191681016001600160401b0381118282101715610222576102226101e6565b604052919050565b5f82601f830112610239575f5ffd5b81516001600160401b03811115610252576102526101e6565b610265601f8201601f19166020016101fa565b818152846020838601011115610279575f5ffd5b8160208501602083015e5f918101602001919091529392505050565b5f6001600160401b038211156102ad576102ad6101e6565b5060051b60200190565b80516001600160a01b03811681146102cd575f5ffd5b919050565b5f82601f8301126102e1575f5ffd5b81516102f46102ef82610295565b6101fa565b8082825260208201915060208360051b860101925085831115610315575f5ffd5b602085015b838110156103395761032b816102b7565b83526020928301920161031a565b5095945050505050565b5f82601f830112610352575f5ffd5b81516103606102ef82610295565b8082825260208201915060208360051b860101925085831115610381575f5ffd5b602085015b83811015610339578051835260209283019201610386565b5f5f5f5f5f5f5f5f610100898b0312156103b6575f5ffd5b88516001600160401b038111156103cb575f5ffd5b6103d78b828c0161022a565b60208b015190995090506001600160401b038111156103f4575f5ffd5b6104008b828c0161022a565b60408b015160608c0151919950975090506001600160401b03811115610424575f5ffd5b6104308b828c016102d2565b60808b015190965090506001600160401b0381111561044d575f5ffd5b6104598b828c01610343565b94505061046860a08a016102b7565b925061047660c08a016102b7565b915061048460e08a016102b7565b90509295985092959890939650565b600181811c908216806104a757607f821691505b6020821081036104c557634e487b7160e01b5f52602260045260245ffd5b50919050565b601f82111561051257805f5260205f20601f840160051c810160208510156104f05750805b601f840160051c820191505b8181101561050f575f81556001016104fc565b50505b505050565b81516001600160401b03811115610530576105306101e6565b6105448161053e8454610493565b846104cb565b6020601f821160018114610576575f831561055f5750848201515b5f19600385901b1c1916600184901b17845561050f565b5f84815260208120601f198516915b828110156105a55787850151825560209485019460019092019101610585565b50848210156105c257868401515f19600387901b60f8161c191681555b50505050600190811b01905550565b60805160a051614bd46106705f395f818161043d01528181610e6001528181610ea90152818161108d0152818161202d015281816120a0015281816121250152818161216e015261231001525f818161075a01528181610c1201528181610f5a01528181611d9d015281816121f0015281816128ef0152818161297901528181613221015281816138cb01528181613adf0152613c900152614bd45ff3fe60806040526004361061026d575f3560e01c80638423f3201161014a578063a987e49f116100be578063d48bfca711610078578063d48bfca71461079b578063d9ca21d5146107ba578063da163387146107cf578063dd62ed3e146107ee578063e61b0e8114610832578063f2fde38b1461084d575f5ffd5b8063a987e49f146106d7578063aa6ca808146106f6578063b0acd84b14610717578063b9b8c2461461072a578063c31c9c0714610749578063ce7ddbef1461077c575f5ffd5b80639e88bcef1161010f5780639e88bcef14610607578063a0398af31461062b578063a2fe4f2d1461064a578063a47f22651461067a578063a553618b14610699578063a9059cbb146106b8575f5ffd5b80638423f320146105815780638da5cb5b1461059557806392aeb53a146105b257806395d89b41146105d1578063965fa21e146105e5575f5ffd5b8063313ce567116101e15780635fa7b584116101a65780635fa7b584146104d15780636dd84ac1146104f05780636ed93dd01461050f57806370a0823114610525578063715018a6146105595780637d7c2a1c1461056d575f5ffd5b8063313ce567146104115780633fc8cef31461042c5780634f4e09211461045f5780635534a7741461047e5780635b6cca801461049d575f5ffd5b806316d1d9161161023257806316d1d9161461035357806318160ddd146103685780631c1f30141461037c5780631e9a6950146103b257806322b1c027146103d357806323b872dd146103f2575f5ffd5b8063017e7e581461027857806301e9d757146102b457806305def347146102d757806306fdde0314610303578063095ea7b314610324575f5ffd5b3661027457005b5f5ffd5b348015610283575f5ffd5b50600654610297906001600160a01b031681565b6040516001600160a01b0390911681526020015b60405180910390f35b3480156102bf575f5ffd5b506102c960075481565b6040519081526020016102ab565b3480156102e2575f5ffd5b506102f66102f136600461401d565b61086c565b6040516102ab919061406e565b34801561030e575f5ffd5b506103176109e9565b6040516102ab91906140ae565b34801561032f575f5ffd5b5061034361033e3660046140d4565b610a79565b60405190151581526020016102ab565b34801561035e575f5ffd5b506102c9600a5481565b348015610373575f5ffd5b506002546102c9565b348015610387575f5ffd5b5060065461039e90600160a01b900462ffffff1681565b60405162ffffff90911681526020016102ab565b3480156103bd575f5ffd5b506103d16103cc3660046140d4565b610a92565b005b3480156103de575f5ffd5b506103d16103ed366004614257565b610aa1565b3480156103fd575f5ffd5b5061034361040c3660046142c7565b610daa565b34801561041c575f5ffd5b50604051601281526020016102ab565b348015610437575f5ffd5b506102977f000000000000000000000000000000000000000000000000000000000000000081565b34801561046a575f5ffd5b506103d1610479366004614305565b610dcf565b348015610489575f5ffd5b506103d161049836600461401d565b611139565b3480156104a8575f5ffd5b506102976104b7366004614363565b600c6020525f90815260409020546001600160a01b031681565b3480156104dc575f5ffd5b506103d16104eb366004614363565b611146565b3480156104fb575f5ffd5b506103d161050a36600461401d565b611208565b34801561051a575f5ffd5b5061039e620f424081565b348015610530575f5ffd5b506102c961053f366004614363565b6001600160a01b03165f9081526020819052604090205490565b348015610564575f5ffd5b506103d1611251565b348015610578575f5ffd5b506103d1611264565b34801561058c575f5ffd5b506102f661184c565b3480156105a0575f5ffd5b506005546001600160a01b0316610297565b3480156105bd575f5ffd5b506103d16105cc3660046143e2565b6118a1565b3480156105dc575f5ffd5b50610317611948565b3480156105f0575f5ffd5b5060065461039e90600160b81b900462ffffff1681565b348015610612575f5ffd5b5061061b611957565b6040516102ab949392919061447e565b348015610636575f5ffd5b506103d1610645366004614257565b611c99565b348015610655575f5ffd5b5061039e610664366004614363565b600d6020525f908152604090205462ffffff1681565b348015610685575f5ffd5b50600854610297906001600160a01b031681565b3480156106a4575f5ffd5b506103d16106b3366004614508565b611f1c565b3480156106c3575f5ffd5b506103436106d23660046140d4565b611f6a565b3480156106e2575f5ffd5b506103d16106f136600461454a565b611f77565b348015610701575f5ffd5b5061070a611f99565b6040516102ab9190614563565b6103d1610725366004614575565b611ff8565b348015610735575f5ffd5b506103d16107443660046140d4565b6123e9565b348015610754575f5ffd5b506102977f000000000000000000000000000000000000000000000000000000000000000081565b348015610787575f5ffd5b506102f661079636600461401d565b61247f565b3480156107a6575f5ffd5b506103d16107b5366004614363565b6125e8565b3480156107c5575f5ffd5b506102c960095481565b3480156107da575f5ffd5b506103d16107e93660046145c9565b6125f9565b3480156107f9575f5ffd5b506102c961080836600461468c565b6001600160a01b039182165f90815260016020908152604080832093909416825291909152205490565b34801561083d575f5ffd5b50600b5461039e9062ffffff1681565b348015610858575f5ffd5b506103d1610867366004614363565b61269d565b60605f61087860025490565b600e549091506001600160401b03811115610895576108956140fe565b6040519080825280602002602001820160405280156108be578160200160208202803683370190505b5091505f5b600e548110156109e257811561098a575f600e82815481106108e7576108e76146c3565b5f918252602090912001546040516370a0823160e01b81523060048201526001600160a01b03909116906370a0823190602401602060405180830381865afa158015610935573d5f5f3e3d5ffd5b505050506040513d601f19601f8201168201806040525081019061095991906146d7565b90506109668582856126da565b848381518110610978576109786146c3565b602002602001018181525050506109da565b6109bb600f82815481106109a0576109a06146c3565b5f918252602090912001548590670de0b6b3a76400006126da565b8382815181106109cd576109cd6146c3565b6020026020010181815250505b6001016108c3565b5050919050565b6060600380546109f8906146ee565b80601f0160208091040260200160405190810160405280929190818152602001828054610a24906146ee565b8015610a6f5780601f10610a4657610100808354040283529160200191610a6f565b820191905f5260205f20905b815481529060010190602001808311610a5257829003601f168201915b5050505050905090565b5f33610a8681858561271f565b60019150505b92915050565b610a9c828261272c565b505050565b600e54815114610ac457604051634ec4810560e11b815260040160405180910390fd5b5f610ace8461086c565b9050610ae56001600160a01b038716333086612878565b610aee866128d2565b5f805b600e54811015610d0d57828181518110610b0d57610b0d6146c3565b60200260200101515f0315610d0557610b6d600e8281548110610b3257610b326146c3565b905f5260205f20015f9054906101000a90046001600160a01b031689868481518110610b6057610b606146c3565b602002602001015161299f565b610bae57838181518110610b8357610b836146c3565b6020026020010151604051635c37922360e01b8152600401610ba591906140ae565b60405180910390fd5b876001600160a01b0316600e8281548110610bcb57610bcb6146c3565b5f918252602090912001546001600160a01b031603610c1057828181518110610bf657610bf66146c3565b602002602001015182610c09919061473a565b9150610d05565b7f00000000000000000000000000000000000000000000000000000000000000006001600160a01b03166309b813466040518060800160405280878581518110610c5c57610c5c6146c3565b60200260200101518152602001306001600160a01b03168152602001868581518110610c8a57610c8a6146c3565b602002602001015181526020015f198152506040518263ffffffff1660e01b8152600401610cb89190614793565b6020604051808303815f875af1158015610cd4573d5f5f3e3d5ffd5b505050506040513d601f19601f82011682018060405250810190610cf891906146d7565b610d02908361473a565b91505b600101610af1565b5083811115610d2f576040516393bce7b360e01b815260040160405180910390fd5b5f610d3a82866147a5565b9050610d506001600160a01b0389163383612a9d565b610d5a8787612ace565b50876001600160a01b03167fd58b185d00630065159db1d6df5fea816128b29100ce9dbc56dd6508e380aa9d888885604051610d98939291906147b8565b60405180910390a25050505050505050565b5f33610db7858285612bb0565b610dc2858585612c13565b60019150505b9392505050565b600e54815114610df257604051634ec4810560e11b815260040160405180910390fd5b5f610dfd308561272c565b90505f805b600e5481101561105557828181518110610e1e57610e1e6146c3565b60200260200101515f031561104d57610e91600e8281548110610e4357610e436146c3565b905f5260205f20015f9054906101000a90046001600160a01b03167f0000000000000000000000000000000000000000000000000000000000000000868481518110610b6057610b606146c3565b610ea757838181518110610b8357610b836146c3565b7f00000000000000000000000000000000000000000000000000000000000000006001600160a01b0316600e8281548110610ee457610ee46146c3565b5f918252602090912001546001600160a01b031603610f2957828181518110610f0f57610f0f6146c3565b602002602001015182610f22919061473a565b915061104d565b610f58600e8281548110610f3f57610f3f6146c3565b5f918252602090912001546001600160a01b03166128d2565b7f00000000000000000000000000000000000000000000000000000000000000006001600160a01b031663b858183f6040518060800160405280878581518110610fa457610fa46146c3565b60200260200101518152602001306001600160a01b03168152602001868581518110610fd257610fd26146c3565b6020026020010151815260200160018152506040518263ffffffff1660e01b81526004016110009190614793565b6020604051808303815f875af115801561101c573d5f5f3e3d5ffd5b505050506040513d601f19601f8201168201806040525081019061104091906146d7565b61104a908361473a565b91505b600101610e02565b5083811015611077576040516393bce7b360e01b815260040160405180910390fd5b604051632e1a7d4d60e01b8152600481018290527f00000000000000000000000000000000000000000000000000000000000000006001600160a01b031690632e1a7d4d906024015f604051808303815f87803b1580156110d6575f5ffd5b505af11580156110e8573d5f5f3e3d5ffd5b505050506110f68682612c70565b7f786875e1cfb7304a0cb0e3672e281b2d4890f432fdd4c07fc44d687612d52963868683604051611129939291906147b8565b60405180910390a1505050505050565b611141612cfa565b600a55565b61114e612cfa565b6001600160a01b0381165f908152600d602052604090205462ffffff161515806111dd57506040516370a0823160e01b81523060048201525f906001600160a01b038316906370a0823190602401602060405180830381865afa1580156111b7573d5f5f3e3d5ffd5b505050506040513d601f19601f820116820180604052508101906111db91906146d7565b115b156111fb57604051631dd2188d60e31b815260040160405180910390fd5b61120481612d27565b5050565b611210612cfa565b60075460408051918252602082018390527fa9d547bad523b2016561d73c8b6f0de927b53e678d07b339173ea7b469ec8969910160405180910390a1600755565b611259612cfa565b6112625f612e84565b565b5f805b600e548110156112c457600d5f600e8381548110611287576112876146c3565b5f9182526020808320909101546001600160a01b031683528201929092526040019020546112ba9062ffffff16836147d9565b9150600101611267565b5062ffffff8116620f4240146112ed576040516375465ad960e11b815260040160405180910390fd5b600a546009546112fd919061473a565b42101561131d5760405163b99250eb60e01b815260040160405180910390fd5b426009555f80808061132d611957565b93509350935093505f84516001600160401b0381111561134f5761134f6140fe565b604051908082528060200260200182016040528015611378578160200160208202803683370190505b5090505f85516001600160401b03811115611395576113956140fe565b6040519080825280602002602001820160405280156113be578160200160208202803683370190505b5090505f5b8651811015611703578681815181106113de576113de6146c3565b60209081029190910101516040516370a0823160e01b81523060048201526001600160a01b03909116906370a0823190602401602060405180830381865afa15801561142c573d5f5f3e3d5ffd5b505050506040513d601f19601f8201168201806040525081019061145091906146d7565b828281518110611462576114626146c3565b6020026020010181815250505f600d5f898481518110611484576114846146c3565b6020908102919091018101516001600160a01b031682528101919091526040015f9081205462ffffff1691508190036114bd57506116fb565b5f620f42406114d162ffffff8416886147f4565b6114db919061481f565b600b549091505f90620f4240906114f79062ffffff168261483e565b6115069062ffffff16846147f4565b611510919061481f565b600b549091505f90620f42409061152c9062ffffff16826147d9565b61153b9062ffffff16856147f4565b611545919061481f565b90508089868151811061155a5761155a6146c3565b6020026020010151118061158657508189868151811061157c5761157c6146c3565b6020026020010151105b156116f6575f838a878151811061159f5761159f6146c3565b60200260200101516115b19190614859565b90505f8c87815181106115c6576115c66146c3565b60200260200101516001600160a01b031663313ce5676040518163ffffffff1660e01b8152600401602060405180830381865afa158015611609573d5f5f3e3d5ffd5b505050506040513d601f19601f8201168201806040525081019061162d919061487f565b90505f8212156116925761166f61164582600a614982565b8d8981518110611657576116576146c3565b602002602001015184612ed59092919063ffffffff16565b898881518110611681576116816146c3565b6020026020010181815250506116f3565b6116cb6116a082600a614982565b8d89815181106116b2576116b26146c3565b6020026020010151846116c490614990565b9190612ed5565b6116d490614990565b8988815181106116e6576116e66146c3565b6020026020010181815250505b50505b505050505b6001016113c3565b5061170e8683613044565b5f86516001600160401b03811115611728576117286140fe565b604051908082528060200260200182016040528015611751578160200160208202803683370190505b5090505f5b875181101561180857878181518110611771576117716146c3565b60209081029190910101516040516370a0823160e01b81523060048201526001600160a01b03909116906370a0823190602401602060405180830381865afa1580156117bf573d5f5f3e3d5ffd5b505050506040513d601f19601f820116820180604052508101906117e391906146d7565b8282815181106117f5576117f56146c3565b6020908102919091010152600101611756565b507ffb0622e1da6c269e725d59af128455ac1987f6cc71e725c8ebe93d52a3196dc1828260405161183a9291906149aa565b60405180910390a15050505050505050565b6060600f805480602002602001604051908101604052809291908181526020018280548015610a6f57602002820191905f5260205f20905b815481526020019060010190808311611884575050505050905090565b6118a9612cfa565b80518251146118cb5760405163dba17af560e01b815260040160405180910390fd5b5f5b8251811015610a9c578181815181106118e8576118e86146c3565b6020026020010151600c5f858481518110611905576119056146c3565b6020908102919091018101516001600160a01b039081168352908201929092526040015f2080546001600160a01b031916929091169190911790556001016118cd565b6060600480546109f8906146ee565b60608060605f611965611f99565b935083516001600160401b03811115611980576119806140fe565b6040519080825280602002602001820160405280156119a9578160200160208202803683370190505b50925083516001600160401b038111156119c5576119c56140fe565b6040519080825280602002602001820160405280156119ee578160200160208202803683370190505b5091505f5b8451811015611c92575f600c5f878481518110611a1257611a126146c3565b6020908102919091018101516001600160a01b039081168352908201929092526040015f205416905080611a8357858281518110611a5257611a526146c3565b602002602001015160405163eeeee6b960e01b8152600401610ba591906001600160a01b0391909116815260200190565b806001600160a01b031663feaf968c6040518163ffffffff1660e01b815260040160a060405180830381865afa158015611abf573d5f5f3e3d5ffd5b505050506040513d601f19601f82011682018060405250810190611ae391906149e7565b5050875191925087918591508110611afd57611afd6146c3565b6020026020010181815250505f868381518110611b1c57611b1c6146c3565b60200260200101516001600160a01b031663313ce5676040518163ffffffff1660e01b8152600401602060405180830381865afa158015611b5f573d5f5f3e3d5ffd5b505050506040513d601f19601f82011682018060405250810190611b83919061487f565b90505f878481518110611b9857611b986146c3565b60209081029190910101516040516370a0823160e01b81523060048201526001600160a01b03909116906370a0823190602401602060405180830381865afa158015611be6573d5f5f3e3d5ffd5b505050506040513d601f19601f82011682018060405250810190611c0a91906146d7565b9050611c3e878581518110611c2157611c216146c3565b602002602001015183600a611c369190614982565b839190612ed5565b868581518110611c5057611c506146c3565b602002602001018181525050858481518110611c6e57611c6e6146c3565b602002602001015185611c81919061473a565b945050600190920191506119f39050565b5090919293565b600e54815114611cbc57604051634ec4810560e11b815260040160405180910390fd5b5f611cc7308561272c565b90505f805b600e54811015611e9857828181518110611ce857611ce86146c3565b60200260200101515f0315611e9057611d0d600e8281548110610b3257610b326146c3565b611d2357838181518110610b8357610b836146c3565b876001600160a01b0316600e8281548110611d4057611d406146c3565b5f918252602090912001546001600160a01b031603611d8557828181518110611d6b57611d6b6146c3565b602002602001015182611d7e919061473a565b9150611e90565b611d9b600e8281548110610f3f57610f3f6146c3565b7f00000000000000000000000000000000000000000000000000000000000000006001600160a01b031663b858183f6040518060800160405280878581518110611de757611de76146c3565b60200260200101518152602001306001600160a01b03168152602001868581518110611e1557611e156146c3565b6020026020010151815260200160018152506040518263ffffffff1660e01b8152600401611e439190614793565b6020604051808303815f875af1158015611e5f573d5f5f3e3d5ffd5b505050506040513d601f19601f82011682018060405250810190611e8391906146d7565b611e8d908361473a565b91505b600101611ccc565b5083811015611eba576040516393bce7b360e01b815260040160405180910390fd5b611ece6001600160a01b0388168783612a9d565b866001600160a01b03167f19b500572e111e1efaa6d79e923346af4412022ba47520af0af63701618fa738878784604051611f0b939291906147b8565b60405180910390a250505050505050565b611f24612cfa565b600680546001600160a01b03949094166001600160b81b031990941693909317600160a01b62ffffff938416021762ffffff60b81b1916600160b81b9190921602179055565b5f33610a86818585612c13565b611f7f612cfa565b600b805462ffffff191662ffffff92909216919091179055565b6060600e805480602002602001604051908101604052809291908181526020018280548015610a6f57602002820191905f5260205f20905b81546001600160a01b03168152600190910190602001808311611fd1575050505050905090565b600e5481511461201b57604051634ec4810560e11b815260040160405180910390fd5b5f6120258361086c565b90505f3490507f00000000000000000000000000000000000000000000000000000000000000006001600160a01b031663d0e30db0826040518263ffffffff1660e01b81526004015f604051808303818588803b158015612084575f5ffd5b505af1158015612096573d5f5f3e3d5ffd5b50505050506120c47f00000000000000000000000000000000000000000000000000000000000000006128d2565b5f805b600e548110156122eb578381815181106120e3576120e36146c3565b60200260200101515f03156122e357612156600e8281548110612108576121086146c3565b905f5260205f20015f9054906101000a90046001600160a01b03167f0000000000000000000000000000000000000000000000000000000000000000878481518110610b6057610b606146c3565b61216c57848181518110610b8357610b836146c3565b7f00000000000000000000000000000000000000000000000000000000000000006001600160a01b0316600e82815481106121a9576121a96146c3565b5f918252602090912001546001600160a01b0316036121ee578381815181106121d4576121d46146c3565b6020026020010151826121e7919061473a565b91506122e3565b7f00000000000000000000000000000000000000000000000000000000000000006001600160a01b03166309b81346604051806080016040528088858151811061223a5761223a6146c3565b60200260200101518152602001306001600160a01b03168152602001878581518110612268576122686146c3565b602002602001015181526020015f198152506040518263ffffffff1660e01b81526004016122969190614793565b6020604051808303815f875af11580156122b2573d5f5f3e3d5ffd5b505050506040513d601f19601f820116820180604052508101906122d691906146d7565b6122e0908361473a565b91505b6001016120c7565b505f6122f782846147a5565b604051632e1a7d4d60e01b8152600481018290529091507f00000000000000000000000000000000000000000000000000000000000000006001600160a01b031690632e1a7d4d906024015f604051808303815f87803b158015612359575f5ffd5b505af115801561236b573d5f5f3e3d5ffd5b505060405133925083156108fc02915083905f818181858888f19350505050158015612399573d5f5f3e3d5ffd5b506123a48787612ace565b507f36e6d1f8e1c4f92e727ccf4a79ffccbf5c0ef99f5173e9db300980664a7ff9848787846040516123d8939291906147b8565b60405180910390a150505050505050565b5f6123f48383612ace565b90505f5b600e54811015612479575f828281518110612415576124156146c3565b6020026020010151111561247157612471333084848151811061243a5761243a6146c3565b6020026020010151600e8581548110612455576124556146c3565b5f918252602090912001546001600160a01b0316929190612878565b6001016123f8565b50505050565b600654606090600160b81b900462ffffff16156124d0576006545f90620f4240906124b690600160b81b900462ffffff16856147f4565b6124c0919061481f565b90506124cc81846147a5565b9250505b5f6124da60025490565b600e549091506001600160401b038111156124f7576124f76140fe565b604051908082528060200260200182016040528015612520578160200160208202803683370190505b5091505f5b600e548110156109e2575f600e8281548110612543576125436146c3565b5f918252602090912001546040516370a0823160e01b81523060048201526001600160a01b03909116906370a0823190602401602060405180830381865afa158015612591573d5f5f3e3d5ffd5b505050506040513d601f19601f820116820180604052508101906125b591906146d7565b90506125c2818685612ed5565b8483815181106125d4576125d46146c3565b602090810291909101015250600101612525565b6125f0612cfa565b611204816132c2565b612601612cfa565b80518251146126235760405163dba17af560e01b815260040160405180910390fd5b5f5b8251811015610a9c57818181518110612640576126406146c3565b6020026020010151600d5f85848151811061265d5761265d6146c3565b6020908102919091018101516001600160a01b031682528101919091526040015f20805462ffffff191662ffffff92909216919091179055600101612625565b6126a5612cfa565b6001600160a01b0381166126ce57604051631e4fbdf760e01b81525f6004820152602401610ba5565b6126d781612e84565b50565b5f6126e6848484612ed5565b90505f82806126f7576126f761480b565b8486091115610dc8575f19811061270c575f5ffd5b8061271681614a35565b95945050505050565b610a9c83838360016133b4565b60606127378261247f565b6006549091505f90600160b81b900462ffffff161561279157600654620f42409061276e90600160b81b900462ffffff16856147f4565b612778919061481f565b600654909150612791906001600160a01b031682613486565b5f5b600e54811015612827576001600160a01b03851630148015906127ce57505f8382815181106127c4576127c46146c3565b6020026020010151115b1561281f5761281f858483815181106127e9576127e96146c3565b6020026020010151600e8481548110612804576128046146c3565b5f918252602090912001546001600160a01b03169190612a9d565b600101612793565b5061283233846134ba565b7f626f4593f8e12e62b00d18bb3073d2cbe173b9415cdb7b39ed0609569b66f5603385858486604051612869959493929190614a4d565b60405180910390a15092915050565b61247984856001600160a01b03166323b872dd8686866040516024016128a093929190614a91565b604051602081830303815290604052915060e01b6020820180516001600160e01b0383818316178352505050506134ee565b604051636eb1769f60e11b81523060048201526001600160a01b037f0000000000000000000000000000000000000000000000000000000000000000811660248301525f19919083169063dd62ed3e90604401602060405180830381865afa158015612940573d5f5f3e3d5ffd5b505050506040513d601f19601f8201168201806040525081019061296491906146d7565b10156126d7576126d76001600160a01b0382167f00000000000000000000000000000000000000000000000000000000000000005f1961355a565b5f5f5f6129ab846135e9565b5091509150846001600160a01b0316866001600160a01b031603612a2757856001600160a01b0316826001600160a01b03161480156129fb5750856001600160a01b0316816001600160a01b0316145b8015612a0d5750612a0b84613624565b155b15612a1d57600192505050610dc8565b5f92505050610dc8565b856001600160a01b0316826001600160a01b031614612a4a575f92505050610dc8565b612a5384613624565b15612a6857612a618461365d565b9350612a4a565b612a71846135e9565b509150506001600160a01b0380821690861614612a92575f92505050610dc8565b600192505050610dc8565b6040516001600160a01b03838116602483015260448201839052610a9c91859182169063a9059cbb906064016128a0565b6060600754821015612af6576040516316ec8db760e21b815260048101839052602401610ba5565b612aff8261086c565b6006549091505f90600160a01b900462ffffff1615612b7157600654620f424090612b3690600160a01b900462ffffff16856147f4565b612b40919061481f565b600654909150612b59906001600160a01b031682613486565b612b6c84612b6783866147a5565b613486565b612b7b565b612b7b8484613486565b7fa7f6b1cb38ac5fbcae3bbaa808d1f2aaad5c8da1dd8f1d960088082f84013953848483856040516128699493929190614ab5565b6001600160a01b038381165f908152600160209081526040808320938616835292905220545f198110156124795781811015612c0557828183604051637dc7a0d960e11b8152600401610ba5939291906147b8565b61247984848484035f6133b4565b6001600160a01b038316612c3c57604051634b637e8f60e11b81525f6004820152602401610ba5565b6001600160a01b038216612c655760405163ec442f0560e01b81525f6004820152602401610ba5565b610a9c83838361368e565b604080515f808252602082019092526001600160a01b038416908390604051612c999190614ae1565b5f6040518083038185875af1925050503d805f8114612cd3576040519150601f19603f3d011682016040523d82523d5f602084013e612cd8565b606091505b5050905080610a9c5760405163067ecc5f60e01b815260040160405180910390fd5b6005546001600160a01b031633146112625760405163118cdaa760e01b8152336004820152602401610ba5565b5f805b600e54811015612e6a57826001600160a01b0316600e8281548110612d5157612d516146c3565b5f918252602090912001546001600160a01b031603612e6257600e80549192508291612d7f906001906147a5565b81548110612d8f57612d8f6146c3565b5f91825260209091200154600e80546001600160a01b039092169183908110612dba57612dba6146c3565b905f5260205f20015f6101000a8154816001600160a01b0302191690836001600160a01b03160217905550600e805480612df657612df6614af7565b5f8281526020908190205f19908301810180546001600160a01b0319169055909101909155604080516001600160a01b03861681529182018490527fbe9bb4bdca0a094babd75e3a98b1d2e2390633430d0a2f6e2b9970e2ee03fb2e910160405180910390a150919050565b600101612d2a565b50604051630cbdb7b360e41b815260040160405180910390fd5b600580546001600160a01b038381166001600160a01b0319831681179093556040519116919082907f8be0079c531659141344cd1fd0a4f28419497f9722a3daafe3b4186f6b6457e0905f90a35050565b5f80805f19858709858702925082811083820303915050805f03612f09575f8411612efe575f5ffd5b508290049050610dc8565b808411612f14575f5ffd5b5f848688098084039381119092039190505f85612f338119600161473a565b16958690049593849004935f819003046001019050612f5281846147f4565b909317925f612f628760036147f4565b6002189050612f7181886147f4565b612f7c9060026147a5565b612f8690826147f4565b9050612f9281886147f4565b612f9d9060026147a5565b612fa790826147f4565b9050612fb381886147f4565b612fbe9060026147a5565b612fc890826147f4565b9050612fd481886147f4565b612fdf9060026147a5565b612fe990826147f4565b9050612ff581886147f4565b6130009060026147a5565b61300a90826147f4565b905061301681886147f4565b6130219060026147a5565b61302b90826147f4565b905061303781866147f4565b9998505050505050505050565b60085460408051631f209df760e11b815290515f926001600160a01b031691633e413bee9160048083019260209291908290030181865afa15801561308b573d5f5f3e3d5ffd5b505050506040513d601f19601f820116820180604052508101906130af9190614b0b565b90505f6130bd8285856137a1565b90506130cb828585846139bf565b9050801561247957805f5b85518110156132ba575f620f424062ffffff16600d5f8985815181106130fe576130fe6146c3565b6020908102919091018101516001600160a01b031682528101919091526040015f20546131309062ffffff16866147f4565b61313a919061481f565b9050805f0361314957506132b2565b828111156131545750815b60085487515f916001600160a01b0316906312be4fe09088908b908790811061317f5761317f6146c3565b6020026020010151856040518463ffffffff1660e01b81526004016131a693929190614a91565b5f60405180830381865afa1580156131c0573d5f5f3e3d5ffd5b505050506040513d5f823e601f3d908101601f191682016040526131e79190810190614b26565b506040805160808101825282815230602082015280820185905260016060820152905163b858183f60e01b81529192506001600160a01b037f0000000000000000000000000000000000000000000000000000000000000000169163b858183f9161325491600401614793565b6020604051808303815f875af1158015613270573d5f5f3e3d5ffd5b505050506040513d601f19601f8201168201806040525081019061329491906146d7565b5061329f82856147a5565b9350835f036132af5750506132ba565b50505b6001016130d6565b505050505050565b5f805b600e5481101561332657826001600160a01b0316600e82815481106132ec576132ec6146c3565b5f918252602090912001546001600160a01b03160361331e57604051632ae3f45d60e11b815260040160405180910390fd5b6001016132c5565b5050600e80546001810182555f919091527fbb7b4a454dc3493923482f07822329ed19e8244eff582cc204f8554c3620c3fd810180546001600160a01b0319166001600160a01b03841690811790915560408051918252602082018390527ff4c563a3ea86ff1f4275e8c207df0375a51963f2b831b7bf4da8be938d92876c910160405180910390a1919050565b6001600160a01b0384166133dd5760405163e602df0560e01b81525f6004820152602401610ba5565b6001600160a01b03831661340657604051634a1406b160e11b81525f6004820152602401610ba5565b6001600160a01b038085165f908152600160209081526040808320938716835292905220829055801561247957826001600160a01b0316846001600160a01b03167f8c5be1e5ebec7d5bd14f71427d1e84f3dd0314c0f7b2291e5b200ac8c7c3b9258460405161347891815260200190565b60405180910390a350505050565b6001600160a01b0382166134af5760405163ec442f0560e01b81525f6004820152602401610ba5565b6112045f838361368e565b6001600160a01b0382166134e357604051634b637e8f60e11b81525f6004820152602401610ba5565b611204825f8361368e565b5f5f60205f8451602086015f885af18061350d576040513d5f823e3d81fd5b50505f513d91508115613524578060011415613531565b6001600160a01b0384163b155b1561247957604051635274afe760e01b81526001600160a01b0385166004820152602401610ba5565b604080516001600160a01b038416602482015260448082018490528251808303909101815260649091019091526020810180516001600160e01b031663095ea7b360e01b1790526135ab8482613d22565b612479576040516001600160a01b0384811660248301525f60448301526135df91869182169063095ea7b3906064016128a0565b61247984826134ee565b5f80806135f68482613d6b565b9250613603846014613e1e565b905061361b6136146003601461473a565b8590613d6b565b91509193909250565b5f6136316003601461473a565b601461363e60038261473a565b613648919061473a565b613652919061473a565b825110159050919050565b6060610a8c61366e6003601461473a565b61367a6003601461473a565b845161368691906147a5565b849190613ec8565b6001600160a01b0383166136b8578060025f8282546136ad919061473a565b909155506137159050565b6001600160a01b0383165f90815260208190526040902054818110156136f75783818360405163391434e360e21b8152600401610ba5939291906147b8565b6001600160a01b0384165f9081526020819052604090209082900390555b6001600160a01b0382166137315760028054829003905561374f565b6001600160a01b0382165f9081526020819052604090208054820190555b816001600160a01b0316836001600160a01b03167fddf252ad1be2c89b69c2b068fc378daa952ba7f163c4a11628f55a4df523b3ef8360405161379491815260200190565b60405180910390a3505050565b5f81518351146137c45760405163dba17af560e01b815260040160405180910390fd5b5f5b83518110156139b7575f8382815181106137e2576137e26146c3565b602002602001015112156139af57613812848281518110613805576138056146c3565b60200260200101516128d2565b60085484515f916001600160a01b0316906312be4fe09087908590811061383b5761383b6146c3565b602002602001015188878681518110613856576138566146c3565b602002602001015161386790614990565b6040518463ffffffff1660e01b815260040161388593929190614a91565b5f60405180830381865afa15801561389f573d5f5f3e3d5ffd5b505050506040513d5f823e601f3d908101601f191682016040526138c69190810190614b26565b5090507f00000000000000000000000000000000000000000000000000000000000000006001600160a01b031663b858183f6040518060800160405280848152602001306001600160a01b0316815260200187868151811061392a5761392a6146c3565b602002602001015161393b90614990565b815260200160018152506040518263ffffffff1660e01b81526004016139619190614793565b6020604051808303815f875af115801561397d573d5f5f3e3d5ffd5b505050506040513d601f19601f820116820180604052508101906139a191906146d7565b6139ab908461473a565b9250505b6001016137c6565b509392505050565b5f82518451146139e25760405163dba17af560e01b815260040160405180910390fd5b50806139ed856128d2565b5f5b8451811015613d19575f848281518110613a0b57613a0b6146c3565b60200260200101511315613d11575f5f60085f9054906101000a90046001600160a01b03166001600160a01b0316637020df9589898681518110613a5157613a516146c3565b6020026020010151898781518110613a6b57613a6b6146c3565b60200260200101516040518463ffffffff1660e01b8152600401613a9193929190614a91565b5f60405180830381865afa158015613aab573d5f5f3e3d5ffd5b505050506040513d5f823e601f3d908101601f19168201604052613ad29190810190614b26565b91509150808410613bbd577f00000000000000000000000000000000000000000000000000000000000000006001600160a01b03166309b813466040518060800160405280858152602001306001600160a01b03168152602001898781518110613b3e57613b3e6146c3565b602002602001015181526020015f198152506040518263ffffffff1660e01b8152600401613b6c9190614793565b6020604051808303815f875af1158015613b88573d5f5f3e3d5ffd5b505050506040513d601f19601f82011682018060405250810190613bac91906146d7565b613bb690856147a5565b9350613d0e565b8315613d0e5760085487516001600160a01b03909116906312be4fe0908a908a9087908110613bee57613bee6146c3565b6020026020010151876040518463ffffffff1660e01b8152600401613c1593929190614a91565b5f60405180830381865afa158015613c2f573d5f5f3e3d5ffd5b505050506040513d5f823e601f3d908101601f19168201604052613c569190810190614b26565b506040805160808101825282815230602082015280820187905260016060820152905163b858183f60e01b81529193506001600160a01b037f0000000000000000000000000000000000000000000000000000000000000000169163b858183f91613cc391600401614793565b6020604051808303815f875af1158015613cdf573d5f5f3e3d5ffd5b505050506040513d601f19601f82011682018060405250810190613d0391906146d7565b505f93505050613d19565b50505b6001016139ef565b50949350505050565b5f5f5f5f60205f8651602088015f8a5af192503d91505f519050828015613d6157508115613d535780600114613d61565b5f866001600160a01b03163b115b9695505050505050565b5f81613d7881601461473a565b1015613dbb5760405162461bcd60e51b8152602060048201526012602482015271746f416464726573735f6f766572666c6f7760701b6044820152606401610ba5565b613dc682601461473a565b83511015613e0e5760405162461bcd60e51b8152602060048201526015602482015274746f416464726573735f6f75744f66426f756e647360581b6044820152606401610ba5565b500160200151600160601b900490565b5f81613e2b81600361473a565b1015613e6d5760405162461bcd60e51b8152602060048201526011602482015270746f55696e7432345f6f766572666c6f7760781b6044820152606401610ba5565b613e7882600361473a565b83511015613ebf5760405162461bcd60e51b8152602060048201526014602482015273746f55696e7432345f6f75744f66426f756e647360601b6044820152606401610ba5565b50016003015190565b606081613ed681601f61473a565b1015613f155760405162461bcd60e51b815260206004820152600e60248201526d736c6963655f6f766572666c6f7760901b6044820152606401610ba5565b82613f20838261473a565b1015613f5f5760405162461bcd60e51b815260206004820152600e60248201526d736c6963655f6f766572666c6f7760901b6044820152606401610ba5565b613f69828461473a565b84511015613fad5760405162461bcd60e51b8152602060048201526011602482015270736c6963655f6f75744f66426f756e647360781b6044820152606401610ba5565b606082158015613fcb5760405191505f825260208201604052613d19565b6040519150601f8416801560200281840101858101878315602002848b0101015b81831015614004578051835260209283019201613fec565b5050858452601f01601f19166040525050949350505050565b5f6020828403121561402d575f5ffd5b5035919050565b5f8151808452602084019350602083015f5b82811015614064578151865260209586019590910190600101614046565b5093949350505050565b602081525f610dc86020830184614034565b5f81518084528060208401602086015e5f602082860101526020601f19601f83011685010191505092915050565b602081525f610dc86020830184614080565b6001600160a01b03811681146126d7575f5ffd5b5f5f604083850312156140e5575f5ffd5b82356140f0816140c0565b946020939093013593505050565b634e487b7160e01b5f52604160045260245ffd5b604051601f8201601f191681016001600160401b038111828210171561413a5761413a6140fe565b604052919050565b5f6001600160401b0382111561415a5761415a6140fe565b5060051b60200190565b5f6001600160401b0382111561417c5761417c6140fe565b50601f01601f191660200190565b5f82601f830112614199575f5ffd5b81356141ac6141a782614142565b614112565b8082825260208201915060208360051b8601019250858311156141cd575f5ffd5b602085015b8381101561424d5780356001600160401b038111156141ef575f5ffd5b8601603f810188136141ff575f5ffd5b60208101356142106141a782614164565b8181526040838301018a1015614224575f5ffd5b816040840160208301375f602083830101528086525050506020830192506020810190506141d2565b5095945050505050565b5f5f5f5f5f60a0868803121561426b575f5ffd5b8535614276816140c0565b94506020860135614286816140c0565b9350604086013592506060860135915060808601356001600160401b038111156142ae575f5ffd5b6142ba8882890161418a565b9150509295509295909350565b5f5f5f606084860312156142d9575f5ffd5b83356142e4816140c0565b925060208401356142f4816140c0565b929592945050506040919091013590565b5f5f5f5f60808587031215614318575f5ffd5b8435614323816140c0565b9350602085013592506040850135915060608501356001600160401b0381111561434b575f5ffd5b6143578782880161418a565b91505092959194509250565b5f60208284031215614373575f5ffd5b8135610dc8816140c0565b5f82601f83011261438d575f5ffd5b813561439b6141a782614142565b8082825260208201915060208360051b8601019250858311156143bc575f5ffd5b602085015b8381101561424d5780356143d4816140c0565b8352602092830192016143c1565b5f5f604083850312156143f3575f5ffd5b82356001600160401b03811115614408575f5ffd5b6144148582860161437e565b92505060208301356001600160401b0381111561442f575f5ffd5b61443b8582860161437e565b9150509250929050565b5f8151808452602084019350602083015f5b828110156140645781516001600160a01b0316865260209586019590910190600101614457565b608081525f6144906080830187614445565b82810360208401528086518083526020830191506020880192505f5b818110156144ca5783518352602093840193909201916001016144ac565b505083810360408501526144de8187614034565b9250505082606083015295945050505050565b803562ffffff81168114614503575f5ffd5b919050565b5f5f5f6060848603121561451a575f5ffd5b8335614525816140c0565b9250614533602085016144f1565b9150614541604085016144f1565b90509250925092565b5f6020828403121561455a575f5ffd5b610dc8826144f1565b602081525f610dc86020830184614445565b5f5f5f60608486031215614587575f5ffd5b8335614592816140c0565b92506020840135915060408401356001600160401b038111156145b3575f5ffd5b6145bf8682870161418a565b9150509250925092565b5f5f604083850312156145da575f5ffd5b82356001600160401b038111156145ef575f5ffd5b6145fb8582860161437e565b92505060208301356001600160401b03811115614616575f5ffd5b8301601f81018513614626575f5ffd5b80356146346141a782614142565b8082825260208201915060208360051b850101925087831115614655575f5ffd5b6020840193505b8284101561467e5761466d846144f1565b82526020938401939091019061465c565b809450505050509250929050565b5f5f6040838503121561469d575f5ffd5b82356146a8816140c0565b915060208301356146b8816140c0565b809150509250929050565b634e487b7160e01b5f52603260045260245ffd5b5f602082840312156146e7575f5ffd5b5051919050565b600181811c9082168061470257607f821691505b60208210810361472057634e487b7160e01b5f52602260045260245ffd5b50919050565b634e487b7160e01b5f52601160045260245ffd5b80820180821115610a8c57610a8c614726565b5f8151608084526147616080850182614080565b6020848101516001600160a01b0316908601526040808501519086015260609384015193909401929092525090919050565b602081525f610dc8602083018461474d565b81810381811115610a8c57610a8c614726565b6001600160a01b039390931683526020830191909152604082015260600190565b62ffffff8181168382160190811115610a8c57610a8c614726565b8082028115828204841417610a8c57610a8c614726565b634e487b7160e01b5f52601260045260245ffd5b5f8261483957634e487b7160e01b5f52601260045260245ffd5b500490565b62ffffff8281168282160390811115610a8c57610a8c614726565b8181035f83128015838313168383128216171561487857614878614726565b5092915050565b5f6020828403121561488f575f5ffd5b815160ff81168114610dc8575f5ffd5b6001815b60018411156148da578085048111156148be576148be614726565b60018416156148cc57908102905b60019390931c9280026148a3565b935093915050565b5f826148f057506001610a8c565b816148fc57505f610a8c565b8160018114614912576002811461491c57614938565b6001915050610a8c565b60ff84111561492d5761492d614726565b50506001821b610a8c565b5060208310610133831016604e8410600b841016171561495b575081810a610a8c565b6149675f19848461489f565b805f190482111561497a5761497a614726565b029392505050565b5f610dc860ff8416836148e2565b5f600160ff1b82016149a4576149a4614726565b505f0390565b604081525f6149bc6040830185614034565b82810360208401526127168185614034565b805169ffffffffffffffffffff81168114614503575f5ffd5b5f5f5f5f5f60a086880312156149fb575f5ffd5b614a04866149ce565b60208701516040880151606089015192975090955093509150614a29608087016149ce565b90509295509295909350565b5f60018201614a4657614a46614726565b5060010190565b6001600160a01b03868116825285166020820152604081018490526060810183905260a0608082018190525f90614a8690830184614034565b979650505050505050565b6001600160a01b039384168152919092166020820152604081019190915260600190565b60018060a01b0385168152836020820152826040820152608060608201525f613d616080830184614034565b5f82518060208501845e5f920191825250919050565b634e487b7160e01b5f52603160045260245ffd5b5f60208284031215614b1b575f5ffd5b8151610dc8816140c0565b5f5f60408385031215614b37575f5ffd5b82516001600160401b03811115614b4c575f5ffd5b8301601f81018513614b5c575f5ffd5b8051614b6a6141a782614164565b818152866020838501011115614b7e575f5ffd5b8160208401602083015e5f6020928201830152940151939593945050505056fea2646970667358221220d0da3801f552732c5c612d31e494b710626b722c73e6fdfea00549bcf7b4b95e64736f6c634300081c0033","linkReferences":{}},"methodIdentifiers":{"HUNDRED_PERCENT()":"6ed93dd0","addToken(address)":"d48bfca7","allowance(address,address)":"dd62ed3e","approve(address,uint256)":"095ea7b3","balanceOf(address)":"70a08231","decimals()":"313ce567","etfQuoter()":"a47f2265","feeTo()":"017e7e58","getInitTokenAmountPerShares()":"8423f320","getInvestTokenAmounts(uint256)":"05def347","getPriceFeed(address)":"5b6cca80","getRedeemTokenAmounts(uint256)":"ce7ddbef","getTokenMarketValues()":"9e88bcef","getTokenTargetWeight(address)":"a2fe4f2d","getTokens()":"aa6ca808","invest(address,uint256)":"b9b8c246","investFee()":"1c1f3014","investWithETH(address,uint256,bytes[])":"b0acd84b","investWithToken(address,address,uint256,uint256,bytes[])":"22b1c027","lastRebalanceTime()":"d9ca21d5","minMintAmount()":"01e9d757","name()":"06fdde03","owner()":"8da5cb5b","rebalance()":"7d7c2a1c","rebalanceDeviance()":"e61b0e81","rebalanceInterval()":"16d1d916","redeem(address,uint256)":"1e9a6950","redeemFee()":"965fa21e","redeemToETH(address,uint256,uint256,bytes[])":"4f4e0921","redeemToToken(address,address,uint256,uint256,bytes[])":"a0398af3","removeToken(address)":"5fa7b584","renounceOwnership()":"715018a6","setFee(address,uint24,uint24)":"a553618b","setPriceFeeds(address[],address[])":"92aeb53a","setTokenTargetWeights(address[],uint24[])":"da163387","swapRouter()":"c31c9c07","symbol()":"95d89b41","totalSupply()":"18160ddd","transfer(address,uint256)":"a9059cbb","transferFrom(address,address,uint256)":"23b872dd","transferOwnership(address)":"f2fde38b","updateMinMintAmount(uint256)":"6dd84ac1","updateRebalanceDeviance(uint24)":"a987e49f","updateRebalanceInterval(uint256)":"5534a774","weth()":"3fc8cef3"},"storageLayout":{"storage":[{"astId":35510,"contract":"src/ETF.sol:ETF","label":"_balances","offset":0,"slot":"0","type":"t_mapping(t_address,t_uint256)"},{"astId":35516,"contract":"src/ETF.sol:ETF","label":"_allowances","offset":0,"slot":"1","type":"t_mapping(t_address,t_mapping(t_address,t_uint256))"},{"astId":35518,"contract":"src/ETF.sol:ETF","label":"_totalSupply","offset":0,"slot":"2","type":"t_uint256"},{"astId":35520,"contract":"src/ETF.sol:ETF","label":"_name","offset":0,"slot":"3","type":"t_string_storage"},{"astId":35522,"contract":"src/ETF.sol:ETF","label":"_symbol","offset":0,"slot":"4","type":"t_string_storage"},{"astId":35117,"contract":"src/ETF.sol:ETF","label":"_owner","offset":0,"slot":"5","type":"t_address"},{"astId":36644,"contract":"src/ETF.sol:ETF","label":"feeTo","offset":0,"slot":"6","type":"t_address"},{"astId":36646,"contract":"src/ETF.sol:ETF","label":"investFee","offset":20,"slot":"6","type":"t_uint24"},{"astId":36648,"contract":"src/ETF.sol:ETF","label":"redeemFee","offset":23,"slot":"6","type":"t_uint24"},{"astId":36650,"contract":"src/ETF.sol:ETF","label":"minMintAmount","offset":0,"slot":"7","type":"t_uint256"},{"astId":36656,"contract":"src/ETF.sol:ETF","label":"etfQuoter","offset":0,"slot":"8","type":"t_address"},{"astId":36658,"contract":"src/ETF.sol:ETF","label":"lastRebalanceTime","offset":0,"slot":"9","type":"t_uint256"},{"astId":36660,"contract":"src/ETF.sol:ETF","label":"rebalanceInterval","offset":0,"slot":"10","type":"t_uint256"},{"astId":36662,"contract":"src/ETF.sol:ETF","label":"rebalanceDeviance","offset":0,"slot":"11","type":"t_uint24"},{"astId":36666,"contract":"src/ETF.sol:ETF","label":"getPriceFeed","offset":0,"slot":"12","type":"t_mapping(t_address,t_address)"},{"astId":36670,"contract":"src/ETF.sol:ETF","label":"getTokenTargetWeight","offset":0,"slot":"13","type":"t_mapping(t_address,t_uint24)"},{"astId":36673,"contract":"src/ETF.sol:ETF","label":"_tokens","offset":0,"slot":"14","type":"t_array(t_address)dyn_storage"},{"astId":36676,"contract":"src/ETF.sol:ETF","label":"_initTokenAmountPerShares","offset":0,"slot":"15","type":"t_array(t_uint256)dyn_storage"}],"types":{"t_address":{"encoding":"inplace","label":"address","numberOfBytes":"20"},"t_array(t_address)dyn_storage":{"encoding":"dynamic_array","label":"address[]","numberOfBytes":"32","base":"t_address"},"t_array(t_uint256)dyn_storage":{"encoding":"dynamic_array","label":"uint256[]","numberOfBytes":"32","base":"t_uint256"},"t_mapping(t_address,t_address)":{"encoding":"mapping","key":"t_address","label":"mapping(address => address)","numberOfBytes":"32","value":"t_address"},"t_mapping(t_address,t_mapping(t_address,t_uint256))":{"encoding":"mapping","key":"t_address","label":"mapping(address => mapping(address => uint256))","numberOfBytes":"32","value":"t_mapping(t_address,t_uint256)"},"t_mapping(t_address,t_uint24)":{"encoding":"mapping","key":"t_address","label":"mapping(address => uint24)","numberOfBytes":"32","value":"t_uint24"},"t_mapping(t_address,t_uint256)":{"encoding":"mapping","key":"t_address","label":"mapping(address => uint256)","numberOfBytes":"32","value":"t_uint256"},"t_string_storage":{"encoding":"bytes","label":"string","numberOfBytes":"32"},"t_uint24":{"encoding":"inplace","label":"uint24","numberOfBytes":"3"},"t_uint256":{"encoding":"inplace","label":"uint256","numberOfBytes":"32"}}},"id":28}